:020000040800F2
:1000000028220020650300089F580008AB53000811
:100010009D580008C91D0008277C0008000000004A
:10002000000000000000000000000000C55F0008A4
:10003000791E0008000000009D5D00084D6000086A
:100040007F0300087F0300087F0300087F03000888
:100050007F0300087F0300087F0300087F03000878
:100060007F0300087F0300087F0300087F03000868
:100070007F0300087F0300087F0300087F03000858
:100080007F03000800000000B51C00087F03000883
:10009000B97B00087F0300087F0300087F03000886
:1000A0007F030008CD6000087F0300087F0300087D
:1000B000D96000087F0300087F0300087F03000861
:1000C0007F0300087F0300087F0300087F03000808
:1000D0007F0300087F0300087F0300087F030008F8
:1000E0007F0300087F0300087F0300087F030008E8
:1000F0007F0300087F0300087F0300080000000062
:10010000000000007F030008000000007F030008DB
:100110007F030008000000007F0300087F03000841
:100120007F0300087F0300087F0300087F030008A7
:100130007F03000800000000000000007F030008AB
:100140007F0300087F03000800000000000000009B
:10015000000000000000000000000000000000009F
:100160000000000000000000000000007F03000805
:100170007F030008000000000000000000000000F5
:10018000000000007F0300080000000000000000E5
:10019000000000000000000000000000000000005F
:1001A00000000000000000007F0300087F0300083B
:1001B0007F0300087F0300087F03000800000000A1
:1001C000000000007F0300080000000000000000A5
:1001D0007F0300087F03000800F002F800F0B2F887
:1001E0000AA090E8000C82448344AAF10107DA4592
:1001F00001D100F0A7F8AFF2090EBAE80F0013F032
:10020000010F18BFFB1A43F0010318473C8200009E
:100210005C8200000A444FF0000C10F8013B13F020
:10022000070408BF10F8014B1D1108BF10F8015B4F
:10023000641E05D010F8016B641E01F8016BF9D142
:1002400013F0080F1EBF10F8014BAD1C0C1B09D199
:100250006D1E58BF01F801CBFAD505E014F8016B0B
:1002600001F8016B6D1EF9D59142D6D3704700009D
:100270000023002400250026103A28BF78C1FBD8AF
:10028000520728BF30C148BF0B6070476E2900F08D
:100290007781702900F0C182662908F039806529CC
:1002A00008F03680672908F03380612908F0328031
:1002B00003681B0A28BF41F08001692900F02481EE
:1002C000642900F02181752900F01E816F2900F05A
:1002D0004E82782900F08D82E92900F0E981E42935
:1002E00000F0E681F52900F0E381EF2900F04B8270
:1002F000F82900F08C820368DB0928BF41F08001F7
:10030000632900F09387732900F09887E32900F0B0
:10031000A387F32900F0A887002070471FB507F0D6
:10032000F2FF00F0F7FF04000020002107F05EFF5D
:10033000401C60600020002107F042FFE0601FBD0C
:1003400010B510BD00F0B8FF1146FFF7E7FF07F04A
:10035000F1FE01F095F803B4FFF7F2FF03BC01F0E2
:10036000D9F800000948804709480047FEE7FEE742
:10037000FEE7FEE7FEE7FEE7FEE7FEE7FEE7FEE755
:1003800004480549054A064B70470000BD60000857
:10039000D9010008281C002028220020281E002047
:1003A000281E00207CB51D4616460C00009001D08A
:1003B0002044401E074B7B442A4669460190304644
:1003C00000F0F7F805461CB10020694600F004F97A
:1003D00028467CBD290200004FF0000200B51346FC
:1003E00094469646203922BFA0E80C50A0E80C5055
:1003F000B1F12001BFF4F7AF090728BFA0E80C5006
:1004000048BF0CC05DF804EB890028BF40F8042BFE
:1004100008BF704748BF20F8022B11F0804F18BF6B
:1004200000F8012B704770477047704710B500F017
:10043000C3FA006810BD10B5044600F0BDFA0460B0
:1004400010BD70B5044685690068C10601D5302627
:1004500000E02026C00707D070BDD4E90121304656
:100460009047206A401C20626D1EF6D570BD70B5A5
:10047000044685690078C00707D170BDD4E9012121
:1004800020209047206A401C20626D1EF6D570BD6A
:1004900009684A0501D540B27047C905FCD500B2CC
:1004A000704709684A0501D5C0B27047C905FCD537
:1004B00080B2704770B50C460546012A05D02878F1
:1004C000800600D5EA69002302E0012305E05B1CF9
:1004D000934202D2E05C0028F9D1A869E618C01A5C
:1004E000A861286A184428622846FFF7AAFF04E09A
:1004F000D5E9012114F8010B9047B442F8D32846FE
:10050000FFF7B5FF70BD00002DE9F041064600245D
:1005100010687529314616A510D0FFF7B9FF0028DD
:1005200002DA404213A507E031688A0701D512A517
:1005300002E0490704D511A5012401E0FFF7B1FF4E
:1005400000210A2206F1240709E0B0FBF2FCB0FB0F
:10055000F2F302FB1C00303078541846491C002886
:10056000F3D123462A463046BDE8F04100F06DBA8B
:10057000000000002D0000002B0000002000000003
:1005800011680268006A530501D508700AE0D305B6
:1005900001D5088006E0130603D5C217C1E90002A1
:1005A00000E008600120704701694A1C0261087878
:1005B000704700B58FB0CDE90131002105910549A3
:1005C0007944CDE903101146684600F031F90FB0C7
:1005D00000BD0000E5FFFFFF0A6802F8010B0A609A
:1005E0007047D1E900239A4202D2531C0B6010706D
:1005F000704700002DE9FF5F15468A460446DFF884
:10060000AC80F8440027D8E900103E46CDE9001040
:1006100010E03AF816106A4602A800F029FE411CC4
:1006200007D02178890603D5E269391891420DD89F
:100630000744761C2078800602D5E069B84205DDC3
:10064000AE42E6DB3AF816000028E2D1A069C01BF2
:10065000A0612046FFF7F5FED8E90010CDE90010B3
:10066000002017E03AF818106A4602A800F000FED1
:10067000B0F1FF3F81460BD000250DF1080B05E0DE
:10068000D4E901211BF8050090476D1C4D45F7D3B7
:1006900008F10100B0428046E4DB206A3844206261
:1006A0002046FFF7E4FEBDE8FF9F0000227D00002A
:1006B0002DE9F0418046D21D22F007020025D2E943
:1006C0000002F52915A614D0011E72F1000106DA08
:1006D0000023D0EB030063EB020211A608E0D8F878
:1006E00000108B0701D50FA602E0490701D50EA621
:1006F00001251146002408F1240704E000F060F908
:1007000030323A55641C50EA0102F7D12B4632468A
:1007100021464046BDE8F04100F097B900000000D6
:100720002D0000002B0000002000000030B400214C
:1007300000F1240408E002F00705D208303542EA4F
:100740004372DB086554491C52EA0305F3D104687F
:10075000002310A2250707D5A40600D421B1C4693F
:1007600001230DA2641EC46130BC00F06EB910B547
:10077000044621461068FFF794FE02462046BDE875
:1007800010400023D2E7D21D22F00701D1E9002357
:10079000CCE700000000000030000000F0B40D467F
:1007A0000188090502D5214C7C4402E01F4C7C44A1
:1007B0000E34002100F1240608E002F00F071209B0
:1007C000E75D42EA03721B097754491C52EA0307AA
:1007D000F3D102780023120704D5702D06D009B199
:1007E000022311342246F0BC00F02FB9012310344B
:1007F000F8E770B504460D4621461068FFF751FE34
:10080000024629462046BDE870400023C6E7D21DB7
:1008100022F00703D3E90023C0E70368126843F01E
:10082000200303600823C3610023B7E7847B000033
:100830002DE9F05F894604464FF0000ADFF874B1F5
:10084000FB44C0F820A02046E1688847002874D007
:10085000252806D0D4E901219047206A401C206257
:10086000F1E700265F462046E168884720280546D4
:1008700007DB312D05D2781910F8200C08B106439A
:10088000F1E7B00701D526F00406C4F81CA0002744
:10089000C4F818A02A2D09D0284607F043FC38B325
:1008A00004EB8708303DC8F8185019E059F8041BCC
:1008B000204604EB87029161E1688847012F0546D5
:1008C00018D1E069002820DA26F020061DE0D8F8CB
:1008D000180000EB800005EB40003038C8F8180025
:1008E0002046E1688847054607F01CFC0028EED149
:1008F000012F0AD02E2D08D12046E16888477F1CA1
:100900000546022F46F02006C4DBA069002803DA62
:10091000404246F00106A061F00701D026F0100623
:100920006C2D0BD0682D09D04C2D39D06A2D35D0C7
:10093000742D35D07A2D33D016E038E0E1682F469B
:1009400020468847B842054609D16C2F26D04FF47F
:100950008060E168064320468847054604E06C2F26
:100960001AD04FF4807006430DB3A5F14100192849
:1009700002D8203546F400664A46294620462660BD
:100980004E46FFF783FC80B101280BD0F61D26F000
:10099000070000F1080956E74020E4E78020D8E787
:1009A0000020D6E706F104094DE7284652E7206A01
:1009B000BDE8F09F147B000000487047C81B002072
:1009C00030B5B0F10A024FEA900E71F100034EEA21
:1009D000817EB0EB0E0061EB91014FEA101E4EEAF2
:1009E000017E10EB0E0041EB11114FEA102E4EEA82
:1009F000016E10EB0E0041EB11214FEA104E4EEA52
:100A0000014E10EB0E0041EB1141401841F1000185
:100A10004FEAD00040EA41704FEAD10110EB800567
:100A20004FEA810444EA907444EB01046D1944EBED
:100A30000404521BA3414FF0000348BF0A3200D503
:100A400030BD401C41F1000130BD2DE9F0470D469D
:100A500099469246044600F124080168880604D5A8
:100A6000E06921F01001216000E00120A84201DDD1
:100A7000471B00E00027A1697A1902EB0900081A58
:100A8000A0612078C00602D42046FFF7DAFC0026D9
:100A900008E0D4E901211AF806009047206A401CBA
:100AA000761C20624E45F4DB2078C0060AD520462D
:100AB000FFF7C7FC06E0D4E9012130209047206A07
:100AC000401C2062381EA7F10107F4DC07E0D4E9DE
:100AD000012118F805009047206A401C2062281E5A
:100AE000A5F10105F3DC2046FFF7C1FC20780006E4
:100AF00002D50220BDE8F0870120FBE770472DE911
:100B0000FF4F0C461E464FF0FF378BB0D2E9000175
:100B1000DDF860800A908A46C1F30A5505B93D4662
:100B2000002108464FF00000BAF1000F00F4400029
:100B300005DA00EB80004FF4400101EA50004FEA73
:100B40009059B9F1010F00DDB9460A9850EA4A0000
:100B50000ED044F61050A5F2FF3545432F14B8F1DE
:100B6000000F1ED07542291E1EDDC9F100021CE0D7
:100B7000B8F1010F4FF0000001D0302103E0F24343
:100B800005E02154401CB042FBDB3046002200212E
:100B900021540B99C1F80880C1E900200FB0BDE8CD
:100BA000F08FBD1B6D1CDEE74A4600DA694206A8DD
:100BB00000F0F4FB06AB93E8070003AB83E8070003
:100BC00050460A9900F0ADFC8DE80700A0F50050F2
:100BD0001F3800900398002D0ADD42F21F014A469B
:100BE0000844002303A90390684600F016FF09E0BB
:100BF000A0F500504A461F38002303A90390684619
:100C000000F020FF8DE807000004000C03D04FF037
:100C1000FF30410800E01046B8F1000F03D0002279
:100C2000009215461EE0751E05D4FFF7C9FE30324E
:100C300062556D1EF9D5B3460122084302D0002249
:100C40007F1C04E02078302801D100227F1E002A7A
:100C5000099784D01DE0112D07DAFFF7B1FE30327D
:100C600062556D1C50EA0102F5D1084302D000988C
:100C7000C8B10EE00021681E05E0235C625C63548D
:100C80002254401E491C8142F7DBAB46A81B401E84
:100C90000990002004F80B000B98099AC0F808800E
:100CA000C0E9002B7AE711264FF0000857E72DE93D
:100CB000F04F88460446D21D22F0070191B0D1E9D9
:100CC0000001CDE90A0107F06BF802460B98C00F4E
:100CD00001D02D2007E02068810701D52B2002E0FC
:100CE000202101EAC000032A099001D0072A05DB70
:100CF00003464146204600F011FB0BE120788006B8
:100D000001D5E06900E00620B8F1650F814606D004
:100D1000B8F1660F18D0B8F1670F70D131E000203C
:100D2000B9F1110F009001DB112301E009F101037A
:100D30000AAA01A90CA8FFF7E2FEDDE90C70002663
:100D400009F10105834647E001204B4600904FF032
:100D500000470AAA01A90CA8FFF7D1FEDDE90DB0F2
:100D60000C995D46002610B909F101000D18B9EB88
:100D7000050003D4C0F1FF3609F10105A5EB090018
:100D80002BE0B9F1010F01DA4FF001090020B9F1B0
:100D9000110F0090484601DD112300E003460AAA26
:100DA00001A90CA8FFF7ABFEDDE90C704D4600264B
:100DB0008346207800070AD4AB4500DA5D4601A8D7
:100DC000012D04DD411911F8011C302907D04F45D0
:100DD00002DA17F1040F04DA012082460FE06D1EDB
:100DE000EEE7002F02DCED1B3E4403E0781CA84236
:100DF00000DD7D1CB81B00F1010A4FF00047207890
:100E0000000703D4AA4501DB4FF0FF3A0021B7F1F8
:100E1000004F0DF143088DF8431024D002202B23FE
:100E2000002F01DA7F422D230A21021EA0F10100CA
:100E300000DC5FB197FBF1FC97FBF1F201FB1C7C3E
:100E400017460CF1300C08F801CDEEE7A8F10100CF
:100E500003702188090501D5452100E06521A0F135
:100E6000010800F8011C09980FA9A1EB0807FF1D54
:100E700000B10120411901EBEA70A1693844081A58
:100E8000401EA0612078C00602D42046FFF7D9FAA0
:100E9000099828B1D4E901219047206A401C2062BA
:100EA0002078C00622D52046FFF7CBFA1EE0002EA0
:100EB00004DBB34502DD01A8805D00E03020D4E909
:100EC00001219047206A401C2062761CAAF1010093
:100ED0005FEA000A0AD100F01DFAC0680168405CB0
:100EE000D4E901219047206A401C2062281EA5F108
:100EF0000105DCDC07E0D4E9012118F8010B90477B
:100F0000206A401C2062381EA7F10107F3DC20464E
:100F1000FFF7ADFA032011B041E600002DE9F04FD4
:100F200004460D46D21D22F0070089B0D0E9009793
:100F30004846394606F034FF0246F80F01D02D230B
:100F400007E02068810701D52B2302E0202101EA78
:100F5000C0038DF820300BB1012000E00020032AEF
:100F6000824601D0072A04DB2946204600F0D6F944
:100F70003FE12078800601D40D2500E0E569C7F344
:100F80000A560D2D49DA00214FEA175B08464FF04B
:100F90000000002F00F4400007DA00EB80004FF45F
:100FA000400100EBD07001EA60008115012901DDEC
:100FB0004FF0FF3100224FEA850CBCF1180F06D329
:100FC0001346ACF118004FF08052C24003E04FF4DA
:100FD000801323FA0CF30CF10C0CBCF1200F04D39A
:100FE000ACF1200C09FA0CF001E007FA0CF0002932
:100FF0004FF0004801DD18B90FE00ED140450CD389
:1010000019EB02095F4121B9404502D19F4329EA0A
:101010000209BBEB175F00D0761C2088000502D5C3
:101020007B48784402E07A487844193808AA30238B
:1010300002F80A30037C0AF10101002E0AF1020ACB
:1010400053546A4602DC4FF0300101E04FF03101A9
:101050004FF001088DF8001002D0A6F2FF3603E031
:1010600059EA470100D06B4E002D02DC21780907B8
:1010700004D54FF002082E218DF80110C44600213E
:101080000BE0C7F303433F01C35C491C6D1E02F82C
:101090000830052908F1010801DA002DF1DC0021F2
:1010A0000CE000EB1973491C1B786D1E082902F82F
:1010B00008304FEA091908F1010801DA002DF0DCC7
:1010C00021688B0602D516E0A8F10108E04505DD90
:1010D00002EB080313F8013C302BF5D0B8F1000FF8
:1010E00009DD02EB080313F8013C2E2B03D109079D
:1010F00001D4A8F10108002D05DD3E2102F80810F9
:101100006D1E08F10108407C002E02F8080008F16D
:10111000010804DA2D20764202F8080002E02B20B4
:1011200002F808000A214FF47A70864208F101089B
:101130000BDB96FBF0F3303302F8083096FBF0F34C
:1011400008F1010800FB136601E0642E0CDB64204B
:1011500096FBF0F3303302F8083096FBF0F308F119
:10116000010800FB136601E00A2E06DB96FBF1F096
:10117000303002F8080008F1010896FBF1F001FB9D
:101180001060303002F80800A16908F1010808EB8E
:10119000050202EB0A00081AA0612078C00602D4FA
:1011A0002046FFF74EF9216A08AE01EB0A002062E3
:1011B00004E0D4E9012116F8010B9047BAF1010AC5
:1011C000F7D22078C00602D52046FFF73AF96E46DE
:1011D00009E016F8010B3E280FD0D4E90121904711
:1011E000206A401C2062B8F10108F2D22046FFF7C5
:1011F0003EF909B00320BDE8F08F206A2844206240
:1012000003E0D4E90121302090476D1EEBD3F8E7CD
:101210007973000002FCFFFF10B5436913B1AFF30F
:10122000008001E0FFF746F9012010BD127800F1BF
:1012300024010A7000224A700122EDE711684FF084
:10124000FF32E9E710B5436913B1AFF3008001E065
:10125000FFF7D0F9012010BD128800F1240182842B
:101260000022C2840122EDE711684FF0FF32E9E766
:1012700070B516460C46054600F044F8036893F82E
:101280000101012806D0FF2C0FD8185D68B101209C
:101290002C7070BDD3F807013246214603F20713C4
:1012A00003442846BDE8704018474FF0FF3070BD3A
:1012B00000487047C81B00207546FFF7F9FFAE468F
:1012C00005006946534620F00700854618B020B552
:1012D000FFF756F8BDE820404FF000064FF000073A
:1012E0004FF000084FF0000B21F00701AC46ACE8CE
:1012F000C009ACE8C009ACE8C009ACE8C0098D463B
:101300007047000010B500F005F8001D10BD00BFCB
:10131000DD6E000000487047E81B00202DE9F04119
:101320001F46044603260168072A01F4006004DB17
:1013300008B116A505E016A503E008B115A500E063
:1013400015A521F010002060A069C01EA0610FB19A
:10135000401EA0612046FFF774F84FB1D4E9012187
:1013600038469047206A401C2062C01C206206E07C
:10137000206AFAE7D4E9012115F8010B9047761E9F
:10138000F8D22046FFF773F8BDE8F0814E414E00D9
:101390006E616E00494E4600696E66002DE9F047A9
:1013A000814616468AB0354878440DC88DE80D0050
:1013B00032487844801C03AC0DC884E80D0041F627
:1013C0009B300844372190FBF1F290FBF1F5A5F139
:1013D000800501FB12041B3C02D56442012000E0A1
:1013E0000020DFF898A080460027FA44AAF1BE0A40
:1013F0000EE0E0070AD03246684607EB47010123BA
:101400000AEB810100F01EFB8DE8070064107F1CD1
:10141000002CEED1194F7F44AE3F19E0E80715D0FC
:1014200007EB04100DF1180A90E80E008AE80E0090
:10143000C068F04201D1981908903246012306A9EC
:1014400003A800F0FFFA03AB83E807006D10641CEB
:10145000002DE3D14FF0010332466946B8F1000F89
:1014600003A802D000F0D9FA01E000F0EBFAC9E9D4
:101470000001C9F808200AB0BDE8F08784700000B8
:1014800010B50446AFF300802046BDE81040FEF7DB
:1014900062BF00004FF0013C50F8042B51F8043BB0
:1014A0009A4221D1A2EB0C03934313EACC1317D138
:1014B00050F8042B51F8043B9A4215D1A2EB0C03CF
:1014C000934313EACC130BD150F8042B51F8043B8F
:1014D0009A4209D1A2EB0C03934313EACC13DBD05D
:1014E0004FF00000704700BFD01A01BAB1FA81F185
:1014F00001F0180122FA01F0CB40C1F12001DBB26A
:10150000C0B2C01A2CFA01F3D11A914311EAC311E7
:10151000E6D1704701491820ABBEFEE72600020065
:1015200070475FEA400C08BF91F0000F4FEA8C2330
:101530004FEAC12243EA51514FEA1C5018BF00F54F
:10154000F0404FEA300018BF41F000415FEA6C5CA8
:1015500000F02980BCF1FF3F08BF40F08040704799
:10156000130C06BF12044FF0100C4FF0000C130EBA
:1015700004BF12020CF1080C130F04BF12010CF18E
:10158000040C930F04BF92000CF1020CD30F04BFA4
:1015900052000CF1010C11464FF00002A0F11F00A7
:1015A000A0EB0C00704711F0004F08BF704731F0FE
:1015B00000413FF4D5AF0B0C06BF09044FF0100CEF
:1015C0004FF0000C0B0E04BF09020CF1080C0B0FBE
:1015D00004BF09010CF1040C8B0F04BF89000CF14E
:1015E000020CCB0F04BF49000CF1010CCCF120031D
:1015F000A0EB0C0022FA03F302FA0CF241EA030119
:1016000000F10100704720F07F4C80EA030023F0D6
:101610007F47ACEB070303F57C5300F0004003F178
:10162000FF032DE980494FEA154B09B44FEA1443F3
:1016300025EA0B4E24EA03480FF2042606EB132793
:1016400049083E785FEA320203FB0667C7F50007E8
:1016500007FB06F64FEA54374FEAD64606F1020674
:1016600007FB066CCCF1005C4FEA1C472CEA074CE8
:1016700007FB06F40CFB06F504EB15464FEA96163D
:1016800034BF00204FF000404FEAD13706FB07FC83
:101690004FEA1C4C0CFB0BF7D21B03FB0CF761EB66
:1016A00007010CFB0EF7B0EB074072EB17420CFB87
:1016B00008F734BFA2EB0742B2EB074261EB1741D8
:1016C0004FEA0C444FEA910706FB07FC4FEA1C4C1B
:1016D0000CFB0BF7B0EBC74072EB573203FB0CF778
:1016E00034BFA2EBC742B2EBC74261EB57310CFBF0
:1016F0000EF7B0EBC70072EB57720CFB08F734BF64
:10170000A2EBC702B2EBC70261EB5771039F4FEA2E
:10171000816141EA921104EBCC044FEAD1374FEAE0
:10172000826206FB07FC42EA90124FEA80604FEAB1
:101730001C4C0CFB0BF7D21B03FB0CF761EB0701F6
:101740000CFB0EF7B0EB074072EB17420CFB08F7EF
:1017500034BFA2EB0742B2EB074261EB17414FEAFD
:101760008C554FEA910704EB9C2406FB07FC4FEADB
:101770001C4C0CFB0BF7B0EBC74072EB573203FB72
:101780000CF734BFA2EBC742B2EBC74261EB573153
:101790000CFB0EF7B0EBC70072EB57720CFB08F7AF
:1017A00034BFA2EBC702B2EBC70261EB577115EB76
:1017B0004C254FEA816141EA92114FEA82624FEA79
:1017C000D13742EA901206FB07FC44F100044FEACD
:1017D00080604FEA1C4C0CFB0BF7D21B03FB0CF791
:1017E00061EB07010CFB0EF7B0EB074072EB174201
:1017F0000CFB08F734BFA2EB0742B2EB074261EBE8
:10180000174115EB1C154FEA813141EA92414FEA2D
:10181000823242EA90424FEA80304FEA0C7644F13D
:10182000000448EA03434EEA0B484FF0000EB2EBC7
:10183000080C71EB030724BF624639464EEB0E0ECF
:101840004FF0000B0018524149414BEB0B0BB2EB30
:10185000080C71EB03077BF1000B24BF624639468D
:101860004EEB0E0E4FF0000B0018524149414BEB6E
:101870000B0BB2EB080C71EB03077BF1000B24BFE1
:10188000624639464EEB0E0E51EA020718BF46F08B
:10189000010616EB0E7655F1000254F1000103D556
:1018A000BDE88901BDE80088BDE88901BDE80048C0
:1018B000B619524141EB0101A3F101037047808049
:1018C0007F7E7D7C7B7A797877767675747372719A
:1018D00071706F6E6E6D6C6C6B6A6A696868676652
:1018E00066656464636362616160605F5F5E5E5DE4
:1018F0005D5C5C5B5B5A5A59595858575756565558
:1019000055555454535352525251515050504F4FB9
:101910004F4E4E4D4D4D4C4C4C4B4B4B4A4A4A4909
:10192000494948484847474747464646454545444C
:101930004444444343434342424242414141002BD9
:101940009C4630D477002BD01CB54FEA370703B440
:101950004FF010004FF01001BAF1000F06D0BCF1AB
:10196000000FDCBF40F0080040F008014FF000001D
:101970000FBCBDE810400BF1010BBBF1010F08BF1C
:101980005FEA170722BF12F1010211F101014FF0C6
:10199000004143F1000300F0004043EA00007047BB
:1019A000F9D35708D0E746EA064613F1400F4FEA4D
:1019B00016461FDD13F1200FDFBF16430A46002134
:1019C00020335B42BED0C3F1200746EA064602FA46
:1019D00007F74FEA164646EA0706C3F1200722FA40
:1019E00003F201FA07F721FA03F14FF0000342EA8C
:1019F0000702A7E746EA020646EA06464FEA164607
:101A000046EA0106BCBF46EA0646360C4FF0000324
:101A10004FF000024FF0000194E72DE9804C9A4608
:101A2000934670B491E8380007C831EA400C48BFCB
:101A300034EA430C03D5FFF7E6FDFFF780FFF0BC67
:101A4000BDE8008C2DE9804C9A46934670B491E82D
:101A5000380007C810F0804F08BF13F0804F03D143
:101A600000F005F8FFF76BFFF0BCBDE8008C20F03C
:101A70007F4780EA030023F07F4C07EB0C03A3F5BC
:101A80007C5300F00040A3F1FE0392F0000F00F041
:101A9000B38095F0000F00F077802DE901494FEAFF
:101AA00011404FEA144621EA004800FB06FC24EAF4
:101AB000064708FB06F607FB08F800FB07F718EBDC
:101AC00006484CEB164C4FEA124B18EB07484FEA0E
:101AD00015464CEB174022EA0B4E0BFB06FC25EAA1
:101AE00006470EFB06F607FB0EFE0BFB07F71EEB89
:101AF000064E4CEB164C4FF000061EEB074E4CEB1F
:101B0000174B18EB0B0840F1000018EB0E0B58EBCD
:101B1000000840F100008F1A4FF000013CBFC9439C
:101B2000661B14BFB5EB040C00213CBFC943F61B78
:101B30004FEA17444EEA8E0E27EA04454FEA1C4747
:101B400004FB07622CEA074C05FB07F70CFB05F6C4
:101B500004FB0CFC16EB074642EB174216EB0C4657
:101B600042EB1C421BEB060658EB0202414146EADF
:101B70009E0601D5BDE80189B619524141EB01012C
:101B8000A3F10103BDE801894FEA14454FEA11476B
:101B900024EA054621EA074C05FB07F406FB07F794
:101BA0000CFB06F105FB0CFC11EB074144EB174461
:101BB0004FEA124711EB0C4144EB1C4422EA074C5C
:101BC00005FB07F206FB07F70CFB06F605FB0CFC12
:101BD00016EB074642EB174216EB0C4642EB1C4550
:101BE0006A1854F1000148BF7047B619524141EBE1
:101BF0000101A3F10103704795F0000F37D04FEAC0
:101C000011424FEA144721EA024624EA074C02FB3C
:101C100007F106FB07F70CFB06F402FB0CFC14EBC8
:101C2000074441EB17414FEA154714EB0C4441EBD5
:101C30001C4125EA074C02FB07F506FB07F70CFBE6
:101C400006F602FB0CFC16EB074645EB174516EBB8
:101C50000C4645EB1C42121951F1000148BF704778
:101C6000B619524141EB0101A3F1010370474FEA5C
:101C700014454FEA114724EA054621EA074C05FBC3
:101C800007F106FB07F70CFB06F24FF0000605FB19
:101C90000CFC12EB074241EB174112EB0C4251EBEB
:101CA0001C4148BF7047921841EB0101A3F10103A9
:101CB00070470000014800F0F5BC000094010020CE
:101CC000F8B50446002000902068816811F0010FEB
:101CD00041D18168214A11422ED18168D5432940E2
:101CE000491C81601E48806800F0E07000020DD53C
:101CF0001C481D490068B0FBF1F0401C00EB40009F
:101D0000800000E0401E00900028FBD101F066FA40
:101D100006461BE0816811F0010F03D1816829405C
:101D2000491C816001F05AFA801B02280ED92068F4
:101D30000068C043C00709D0E06D40F01000E065C6
:101D4000206E40F0010020660120F8BD2068016887
:101D5000C943C907DED10020F8BD00003F00008064
:101D6000000300500C000020400D030010B5134884
:101D700000F094FB114800F009FF114802F0A0FFA9
:101D80000021104803F058FA04210E4803F054FAD9
:101D900008210C4803F050FA0C210A4803F04CFAD1
:101DA0000021084802F0E2FE0421064802F0DEFEAF
:101DB000BDE810400821034802F0D8BE940100207D
:101DC000780300202C030020FEE70020704700204D
:101DD0007047000010B500220449054804F053FD87
:101DE0000449034804F046FD002010BD8817002078
:101DF000B80E00208813002010B50146034804F0F7
:101E000039FD024804F0FEFC002010BDB80E002091
:101E100000207047094A10B5D2F8BC22D2F814222B
:101E20000AB1012010BD0A460146044804F02BFD0A
:101E3000BDE81040014804F090BD0000B80E00203D
:101E4000B3EE000A80ED110A9FED080ADFED090AE2
:101E500080ED100A9FED060A80ED030AC0ED040A2A
:101E600080ED0B0AC0ED0C0A704700000000803DB9
:101E700038F8C23D865A533E704772B6FEE780ED91
:101E80000D0AC0ED0C0A7047704700002DE9F84FAD
:101E90004FF000080446CDF800800D4694F8582015
:101EA000DFF8EC93616947464046012A0AD00126D3
:101EB000F84A84F8586041B1296A012905D0A36E17
:101EC000EBB129E00220BDE8F88F6868092838D115
:101ED000A96A4FF4785041B12B6801F07C0100EA07
:101EE00053400843E96A084302E0296800EA514088
:101EF0002168CB6C13400343CB64606621E0C4E9E6
:101F00001971A96A286A31B101F07C01401E0843A9
:101F1000E96A084300E0401E29682B79C1F3846117
:101F200003F01F0399400143A06E401EA066636E3C
:101F300043EA0103636604D12068C16C1140194370
:101F4000C164206803F080FA58B995F8250098B16B
:101F50002068C16895F8262021F4401141EA4251D9
:101F6000C160206803F078FA8246206803F06CFABA
:101F70005AEA00000DD0FBE095F8260095F82410F1
:101F8000400540EA01512068C26822F44012114322
:101F9000E6E7A86A30B1E86A20B195F82500012883
:101FA0005ED003E095F82500012804D02068C168C0
:101FB00021F0007103E02068C16841F00071C16048
:101FC00095F83000012852D02068016921F0020103
:101FD0000161AA6829682068B2F1004F38D003F087
:101FE00047FA2068416921F0004141612068696930
:101FF000C268C2F3C102520091402A69042A44D047
:1020000000EB82002B68026EDFF88CC203F0F8430D
:1020100002EA0C020B431A4342F0004101662068B9
:102020002A69A96900EB8200026E22F080720A43DD
:102030000266297F22682869012923D05FF0000108
:1020400002EB8000026E22F000720A4302668FE00B
:10205000002203F00DFA2068416941F00041C4E715
:10206000E06D40F02000E0654FF00108A8E7D5E9F9
:102070000D1001432068026922F4FF7242F002024F
:102080001143A5E74FF00071DAE7002103F0D2F920
:10209000400320684FF0000172D003F0CBF990FAB2
:1020A000A0F0B0FA80F1286842036ED090FAA0F058
:1020B000B0FA80F0814204D100221146206803F07A
:1020C000E6F90121206803F0B5F9400320684FF0DC
:1020D00001015DD003F0AEF990FAA0F0B0FA80F102
:1020E0002868420359D090FAA0F0B0FA80F08142FB
:1020F00004D100220121206803F0C9F902212068DF
:1021000003F098F9400320684FF0020148D003F033
:1021100091F990FAA0F0B0FA80F12868420344D017
:1021200090FAA0F0B0FA80F0814204D1002202219E
:10213000206803F0ACF90321206803F07BF9400329
:1021400020684FF0030133D003F074F990FAA0F047
:10215000B0FA80F1286842032FD090FAA0F0B0FACC
:1021600080F0814204D100220321206803F08FF91E
:102170002068816811F0010F22D0B6E000E004E091
:1021800003F058F9C0F384618DE7C0F3846091E7F0
:1021900003F050F9C0F38461A2E7C0F38460A6E7BE
:1021A00003F048F9C0F38461B7E7C0F38460BBE78C
:1021B00003F040F9C0F38461CCE7C0F38460D0E75A
:1021C0002A7B296850F8B03FC1F3120C23EA0C03B4
:1021D00002F0180C314A22FA0CF20A401343036051
:1021E000E96849457ED1286841031CD090FAA0F1E6
:1021F000B1FA81F1491C01F01F0109294FEA403170
:1022000032D8002912D000BF90FAA0F1B1FA81F1C2
:1022100001F1010101F01F0106FA01F609D100BF29
:10222000C0F3846109E0C0F38461E3E7C0F3846133
:10223000EEE790FAA0F1B1FA81F101F1010101F0AC
:102240001F0146EA816102D1C0F3846003E090FA85
:10225000A0F0B0FA80F000F1010000F01F0000EBE8
:10226000400041EA00513AE000290ED090FAA0F176
:10227000B1FA81F101F1010101F01F0106FA01F645
:102280000ED100BFC0F384610EE0C0F38461F1E7BA
:1022900000007F400040100400F0FF03FFFF070034
:1022A00090FAA0F1B1FA81F101F1010101F01F01F1
:1022B00046EA816102D1C0F3846003E090FAA0F0A5
:1022C000B0FA80F000F1010000F01F002B4A00EB93
:1022D000400002EB005041EA000141F00071AA68A1
:1022E000206800E001E003F0C3F825482A680242B4
:1022F00040D024488168244B01F0E0719A4202D01A
:10230000224B9A421BD10B0219D42268B2F1A04F82
:1023100030D1826841F4000122F0E0720A43826009
:102320001B481C490068B0FBF1F0801C00EB40002A
:10233000800000E0401E00900028FBD11AE0164DFE
:10234000164BAA4207D1CD0105D422689A4211D07A
:1023500041F0807109E0124DAA420BD14A0209D422
:1023600022689A4206D041F48001826822F0E0722D
:102370000A43826084F858704046A4E5000020FEBD
:102380000000088000030050000021C31000C0902E
:102390000C000020400D0300000052C70001005057
:1023A000000084CB10B50068B0F1A04F4ED10921D8
:1023B000274800F05BF800EE100A264C40F20F119F
:1023C000B8EE400A224884ED160A00F04FF800EEFD
:1023D000100A40F215211E48B8EE400A84ED170A93
:1023E00000F044F800EE100ADFED1B0AF8EE401A88
:1023F000C4ED181A94ED160A70EEC00A9FED170A84
:1024000020EE801AF3EE040A81EE202A9FED141AC2
:10241000C2EE012AC4ED102A94ED172ADFED112A2D
:1024200032EEC22A62EE002A82EEA02AC2EE012A11
:102430009FED0D2A72EE611A61EE801A81EEA00AFC
:10244000C4ED112AC0EE010AC4ED120A10BD00004D
:1024500094010020C40300209AA9F8443333533A6E
:102460000AD7A33B66F6F7446666F7440068A1F511
:1024700080710F390ED0B1F5837F08D0B1F5037F9D
:1024800002D0D0F880007047D0F88C007047D0F8A8
:1024900088007047D0F88400704770472DE9F041FC
:1024A00004464548806800F01F05206802F0CCFF14
:1024B00008BB2168C868C96C00F0004011F4C07FF7
:1024C00000D190B194F85800012814D0012084F86C
:1024D00058002046FFF7F4FB01004FF000020CD03B
:1024E00084F858200846BDE8F081E06D40F02000F7
:1024F000E0650120F7E70220F5E7E06DC00504D5AF
:10250000206E20F00800206600E02266E06D42F2B6
:102510000103984340F48050E065284B20684FF059
:10252000A046984201D1374600E00746874200D0D6
:102530001DB9E76D27F48017E7656027076084F809
:1025400058202068C268920203D5426842F4806233
:102550004260A06908282068426807D022F0400243
:1025600042602068426842F0200206E022F0200229
:1025700042602068426842F040024260206898420F
:1025800001D1324600E00246824209D045B1062D13
:1025900006D0072D04D0E06D40F48010E065A1E77F
:1025A000C26812F0007F9DD18268054B1A4042F04C
:1025B0000802826096E7000000030050000100500E
:1025C000C0FFFF7F704770472DE9F047044690F841
:1025D00058009CB00E464FF00009012815D001208C
:1025E00084F8580000251795189520684FF0A048EA
:1025F00040450ED1284F0097384602F02DFF824605
:10260000206802F029FF60B10EE002201CB0BDE896
:10261000F087E06D40F02000E06584F8585001201C
:10262000F4E7BAF1000F09D0E06D40F02000E0655A
:102630004FF0010984F858504846E7E717483268D8
:1026400040F61F71002A826822F4604216D094F886
:10265000383042EA433273681A438260D8F808205F
:10266000BB6802F0010203F001031A43E2D1B36830
:1026700032681A4383688B431A430BE08260D8F8B0
:102680000820BB6802F0010203F001031A43D1D114
:1026900082688A438260CDE7000100500003005049
:1026A000704770472DE9F05F04460068066845688A
:1026B000DFF854B2DBF8080000F01F07B0070ED5B2
:1026C000A8070CD5E06DC00603D4E06D40F40060AF
:1026D000E0652046FFF7D8FB216802200860DFF89C
:1026E0002CA270074FF0A04801D5680703D430072B
:1026F00037D5280735D5E06DC00603D4E06D40F42A
:102700000070E065206802F0ABFE20B32068504501
:1027100001D1424600E00246824208D03FB1052F77
:1027200005D0092F03D0504503D1414602E0C168CE
:1027300001E00146C96889040DD4016809070AD57A
:1027400002F086FE58B3E06D40F01000E065206EA8
:1027500040F0010020662046FFF7A2FF21680C2010
:102760000860B00601D5A80603D4700658D56806DF
:1027700056D5E06DC00603D4E06D40F40050E0652E
:102780002068C16C11F4C07F1AD00021894602F084
:1027900067FE02462068504514D1434613E0206886
:1027A000416821F00C014160E06D20F48070E0652B
:1027B000E06DC004CFD4E06D40F00100E065CAE7F1
:1027C0000121E3E70346834208D03FB1062F05D03D
:1027D000072F03D0504503D1414602E0C16801E014
:1027E0000146C968B9F1000F14D08B0102D58AB136
:1027F0008A040FD4026852060CD589020AD402F06A
:102800001FFEE8B3E06D40F01000E065206E40F080
:10281000010020662046FFF7C5FD216860200860A2
:1028200030060BD5280609D5E06D40F48030E06510
:10283000204600F067F9216880200860F0050CD57B
:10284000E8050AD5E06D40F40030E0652046FFF76A
:10285000B9FE21684FF480700860B0050CD5A8055A
:102860000AD5E06D40F48020E0652046FFF7ABFE1E
:1028700021684FF400700860F0062ED5E80600E0ED
:1028800008E02AD5E06BD0B1AFB1DBF8080000F466
:10289000604013E02068416821F060014160E06D14
:1028A00020F48050E065E06DC005B3D4E06D40F0E9
:1028B0000100E065AEE72068C068C00750B1E06D78
:1028C00040F48060E065206E40F002002066204603
:1028D000FFF7E7FE216810200860700512D5680533
:1028E00010D5E06D40F48040E065206E40F00800B7
:1028F000206621684FF4806008602046BDE8F05FE4
:10290000FFF7CBBDBDE8F09F000300500001005071
:10291000F8B54FF0000504002E46009502D0E06D9A
:1029200010B107E00120F8BD204600F0EDF8266662
:1029300084F8586020688168C1F3407119B18168DA
:10294000684A1140816020688168C1F3007189B9CB
:102950008168654A114041F0805181606348644953
:102960000068B0FBF1F04000801C00E0401E0090C9
:102970000028FBD120688168C1F3007141B9E16D85
:1029800041F01001E165216E41F001012166012550
:1029900002F05EFDE16DC90600D430B1E06D40F09B
:1029A0001000E06501252846F8BDE06D20F4807038
:1029B00040F00200E0652068806810F0010F11D13E
:1029C0004FF0A04080684B4900F00100896801F099
:1029D0000101084306D148486168826822F47C12EC
:1029E0000A438260E168E06B627F0843A16841EAC4
:1029F0004231084394F8241040EA0140012904D1EF
:102A0000218D3E4A02EB41410843E16A29B101F4BC
:102A10007871226B014342EA01002268D168384B89
:102A200019400143D16020680169626B21F0406167
:102A300011430161206802F003FD70BB207F94F810
:102A40003810800340EA41022168C86844F202035A
:102A500098431043C86020690028206801690AD0A3
:102A600041F480310161206850F8C01F22696FF382
:102A70000D01114307E021F480310161206850F815
:102A8000C01F6FF30D01016094F8400001280CD0C5
:102A90002068016921F00101016160690128206855
:102AA000016B21F00F0111D013E0D4E911010843AB
:102AB000D4E913121143084321680A6940F2FC73F8
:102AC0009A43104340F001000861E6E7226A521E73
:102AD00011430163E06D20F0020040F00100E06569
:102AE00061E70000C0FFFF5FC0FFFF7F0C00002018
:102AF000400D030000010050000300500000FEFFE5
:102B00000740F0FF7047000010B598B0044614214C
:102B100011A8FDF761FC44216846FDF75DFC2068C3
:102B2000B0F1A04F2ED14FF40040009080030F90E1
:102B3000684601F057F908B1FFF79FF91248C16CD8
:102B400041F40051C164C16C01F400511691C16C93
:102B500041F00101C164C06C11A900F001001690A0
:102B60000720119003201290002013904FF0904006
:102B700000F00AFA00221146122000F095FB122004
:102B800000F084FB18B010BD001002402DE9F041A8
:102B900004465948806800F01F05206802F058FC80
:102BA00018B102221046BDE8F08194F858000128BF
:102BB0000CD0012084F858002046FFF781F802006D
:102BC0004FF0000304D084F85830EBE70220EAE726
:102BD000E06D40F60161884340F48070E06547494C
:102BE00020684FF0A046884201D1374600E00746F2
:102BF000874200D01DB9E76D27F48017E765E76DC0
:102C0000FF0404D5276E27F00607276600E0236639
:102C10001C27076084F858302068436823F01C03A1
:102C20004360A06908282068436802D043F0040389
:102C300001E043F008034360E06B20B9206843687B
:102C400043F0100343602068884201D1334600E01E
:102C5000034683420CD05DB1052D09D0092D07D064
:102C6000E36D43F48013E365884225D1314624E0C7
:102C7000C168890119D5E16D21F4005141F48051F9
:102C8000E165A1690829416807D021F04001416050
:102C90002068416841F0200106E021F020014160F8
:102CA0002068416841F04001416020688168144B10
:102CB0001940091D816075E70146C968890184D5FD
:102CC000E16D21F4005141F48051E165A1690829C9
:102CD000416807D021F0400141602068416841F01F
:102CE000200106E021F0200141602068416841F0A8
:102CF0004001416056E70000000300500001005011
:102D0000C0FFFF7F2DE9F041040006D0DFF8E88125
:102D100094F85C00002518B107E00120BDE8F081BF
:102D200084F85D50204600F0EFF82068816921F0BA
:102D30001001816100F052FA0646032705E000BF4A
:102D400000F04CFA801B0A2811D82068806900071F
:102D5000F6D42068816941F00101816100F03EFAFA
:102D600006460BE000F03AFA801B0A2806D9206ECE
:102D700040F00100206684F85C70CEE7206880692E
:102D8000C007EFD02068816941F0020181612168AC
:102D9000414502D1594960680860207C01282068BB
:102DA000816937D041F040018161607C0128206851
:102DB000816932D021F480418161A07C01282068A2
:102DC00081692DD041F48051816120688169A268B8
:102DD00021F44071114381612068816921F0A401CF
:102DE00081612068016921F010010161E06801281A
:102DF00019D010B302281BD02068816941F08001EE
:102E000081612068016941F010010161E0680328D7
:102E10000ED012E021F04001C6E741F48041CBE73B
:102E200021F48051D0E72068816941F0040103E07A
:102E30002068816941F020018161207EE2694006BD
:102E40006FF0FF0101EB0222A0F100701043226A33
:102E5000A38A521E10430A0202EB0343184323685D
:102E6000D861A068B0F5407F10D1D4E90A0301EB26
:102E70000321401E0843216B131303EB0111084388
:102E8000A18C02EB014108432168C860206850F81A
:102E9000C01FE26B1143016019482064216851F89A
:102EA000802FA38E22F4F81242EA03420A601449EA
:102EB00070316164216851F8802F94F8383022F025
:102EC000706242EA03620A600D49B031A1640D49A3
:102ED000E1640C49D83121650A49F031616500F59A
:102EE000547120C08842FCD3A5652566012084F872
:102EF0005C00002012E70000006400400065004014
:102F000000A4004088A5004010B598B004461421E4
:102F100011A8FDF761FA44216846FDF75DFA1749EB
:102F20002068884228D18014009000030C906846E5
:102F300000F058FF08B1FEF7A0FF1148816D41F085
:102F400000718165816D01F000711691C16C41F0D5
:102F50000201C164C06C11A900F0020016904FF488
:102F600040701190022012900020139014900920BC
:102F70001590044800F008F818B010BD0064004037
:102F800000100240000400482DE9F04FDFF82092C5
:102F9000002301260324A9F1040B85B00F2709F1B2
:102FA000040AABF1040EFAE006FA03F52A407CD0DD
:102FB00091F804C00CF0030CBCF1010F02D0BCF17D
:102FC000020F26D1D0F808C0CDF800C04FEA430C5C
:102FD00004FA0CF8CDF810C0DDF800C02CEA080C9B
:102FE000CDF800C0D1F80C80DDF810C008FA0CF85C
:102FF000DDF800C048EA0C08C0F80880D0F804C02A
:103000002CEA050C0D79C5F300159D4045EA0C0529
:1030100045600D79ED43AD070ED0C5684FEA430812
:1030200004FA08FC25EA0C05D1F808C00CFA08FCE3
:103030004CEA050CC0F80CC00D7905F00305022D13
:1030400016D1DD0800EB850CCDF808C0DCF8208037
:103050005D074FEAD56C07FA0CF528EA05080D69FB
:1030600005FA0CF5DDF808C045EA0805CCF8205053
:1030700005684FEA430CCDF808C004FA0CFC25EAB9
:103080000C0591F804C00CF00308DDF808C008FA3C
:103090000CF848EA0508C0F800804D6815F4403F78
:1030A0007CD0444DD5F860C000E077E04CF0010CD6
:1030B000C5F860C02D6E23F0030C05F001050095E6
:1030C0003D4D65440295AD684FEA837C4FEA1C781C
:1030D00007FA08FC25EA0C05B0F1904F06D0DFF89E
:1030E000DCC0604505D14FF0010C20E04FF0000C32
:1030F0001DE0DFF8CCC0604502D14FF0020C16E0B5
:10310000DFF8C0C0604502D14FF0030C0FE0DFF8DC
:10311000B8C0604502D14FF0040C08E0DFF8ACC045
:10312000604502D14FF0050C01E04FF0060C0CFA9F
:1031300008FC4CEA050C029DC5F808C0D9F80050FF
:10314000CC46D1F8048095435FEAC82800D51543E2
:10315000CCF80050DAF80050D446D1F804809543FA
:103160005FEA882800D51543CCF80050DBF8005002
:10317000DC46D1F8048095435FEA883800D51543D2
:10318000CCF80050DEF80050F446D1F804809543A6
:103190005FEAC83800D51543CCF800505B1C0A68BC
:1031A00032FA03F57FF400AF05B0BDE8F08F000000
:1031B00008040140001002400000014000040048E3
:1031C00000080048000C00480010004800140048A7
:1031D0000AB18161704781627047000001488068D0
:1031E00070470000000000200248816842681144D6
:1031F000816070470000002010B50024032000F01B
:1032000073F80F2000F008F808B1012401E000F085
:1032100025F8204610BD000070B50E4E054600246E
:10322000706898B14FF47A71B1FBF0F00A490968FF
:10323000B1FBF0F001F0E3FB40B9102D06D2002203
:103240002946501E00F030F8356000E00124204689
:1032500070BD0000000000200C0000200A4882B071
:10326000016E41F001010166016E01F00101009162
:10327000816D41F080518165806D00F0805000903B
:1032800002B000F0A7BD000000100240002809DBDA
:1032900000F01F02012191404009800000F1E02070
:1032A000C0F8001170470000F0B40E4B1B680C46CC
:1032B000C3F30223C3F10705042D00D90425191D0A
:1032C000072901D2002300E0DB1E012606FA05F1E2
:1032D000491E214099409E40761E16403143F0BC65
:1032E00004F089BD0CED00E0064900F00702086813
:1032F0004FF6FF03184040EA0220034A10430860DB
:10330000704700000CED00E00000FA0501220168A2
:10331000C0F8D022002280F8C82231F8540F40F0C3
:1033200001000880088840F00200088010467047BD
:1033300070B50F4D044669B101290AD1D4F8D802FD
:1033400003F0D7FD607A002803D0286840F006001B
:10335000286070BD607A28B102F07AFE286820F0FB
:1033600006002860D4F8D802BDE8704003F059BDCB
:1033700010ED00E010B50C0607D501F0070101EBD8
:10338000810100EBC100103005E001EB810100EB91
:10339000C10000F5A87099B232B101220273018117
:1033A000190C4181002010BD00220273C180F9E791
:1033B00001EB810200EBC202D0F8D802526A03F09E
:1033C0000EBC01EB810200EBC202D0F8D802D2F8A9
:1033D000642103F058BC70B504460B0601F00700E9
:1033E00000EB800104EBC1014FF001024FF000053A
:1033F00002D54A74103103E081F8515101F5A871EA
:10340000087094F89002012808D084F8902220686F
:1034100004F021F984F89052002070BD022070BDA4
:1034200070B5044601F00F002279904201D90120C5
:1034300070BD0B0601F0070000EB800104EBC10139
:103440004FF001024FF0000502D54A74103103E03D
:1034500081F8515101F5A8718D70087094F89002AF
:10346000012808D084F89022206804F093F984F8A9
:103470009052002070BD022070BD2DE9F047046815
:103480005FEA42480B788D69B4F850804FF0000C29
:103490004BF68F7748F2800648F68F7948F2C00ADB
:1034A000444428D540F2024808EBC30834F80840E9
:1034B000C4F30904A54203D32D1B8D6102D00BE098
:1034C000C1F818C0D0F800C03CF823503D4085F446
:1034D000005535432CF82350520609D50B78056862
:1034E00035F8232002EA090242EA0A0225F82320DD
:1034F00074B30A8927E040F2064808EBC30834F8A1
:103500000840C4F30904A54203D32D1B8D6102D0EA
:103510000BE0C1F818C0D0F800C03CF823503D4083
:1035200085F4005535432CF82350520609D40D7804
:10353000036833F8252002EA090242EA0A0223F866
:1035400025202CB14A8949690068234604F03DFBD7
:103550002046BDE8F0872DE9F05F054600680C467F
:103560005FEA42681646D1F818C02278B0F8508059
:1035700048F6BF7A48F2800B48F68F774CF2800904
:103580004FF6FF734FF4004E4FF0000140447DD5DD
:1035900040F2024808EBC20830F80800C0F3090006
:1035A000844514D9BCEB000CC4F818C010D07604C4
:1035B00008D5D5F800C03CF822603E4046EA09062E
:1035C0002CF8226094F82420012A60D076E1A161D1
:1035D000607810B1012813D01AE02868B0F8503094
:1035E000184400EBC200B0F80224C2F30902A0F8AC
:1035F0000224B0F8022442F40042A0F8022407E0BA
:103600002868B0F85030184400EBC200A0F802144B
:103610006278286812B1012A11D018E0B0F8501071
:103620000844217800EBC100B0F80614C1F3090189
:10363000A0F80614B0F8061441F4004105E0B0F813
:1036400050201044227800EBC200A0F80614E07865
:1036500002280BD12278296831F8220000EA0A00FA
:1036600080F0200040EA0B0021F822002178284653
:10367000FFF79EFE700408D521782A6832F82100F1
:10368000384040EA090022F82100C3E04DE06269B9
:1036900002446261E2690244E2612669226AB2423E
:1036A00002D33046111A03E084F824100AB1104600
:1036B0002162617811B101292BD033E02968B1F87A
:1036C00050201144227801EBC201B1F80224C2F368
:1036D0000902A1F8022401F2024158B13E280ED895
:1036E0004208C60700D0521C0E8803EA8222164305
:1036F0000E8017E00A8842F400420A8012E0420974
:10370000C30600D1521E0B884EEA822213430B805F
:1037100008E02968B1F850201144227801EBC20179
:10372000A1F8020483B22289C4E040F2064808EB03
:10373000C20830F80800C0F30900844514D3BCEB7C
:10374000000CC4F818C010D0760408D4D5F800C016
:103750003CF822603E4046EA09062CF8226094F8C4
:103760002420012A59D0A9E0A161607810B1012874
:1037700013D01AE02868B0F85030184400EBC200AB
:10378000B0F80224C2F30902A0F80224B0F802241F
:1037900042F40042A0F8022407E02868B0F8503054
:1037A000184400EBC200A0F802146278286812B135
:1037B000012A11D018E0B0F850100844217800EB2D
:1037C000C100B0F80614C1F30901A0F80614B0F85E
:1037D000061441F4004105E0B0F85020104422786E
:1037E00000EBC200A0F80614E07802280BD1217883
:1037F0002A6832F8210000EA0A0080F0200040EA3E
:103800000B0022F8210021782846FFF7D1FD700433
:103810007FF532AF0020BDE8F09F6269024462612B
:10382000E2690244E2612669226AB24203D3304669
:10383000111A216204E00AB11046216284F82410B2
:103840006278296812B1012A2AD031E0B1F85020FB
:103850001144227801EBC201B1F80624C2F3090237
:10386000A1F8062401F2064158B13E280ED84208BC
:10387000C60700D0521C0E8803EA822216430E802F
:1038800016E00A8842F400420A8011E04209C306A9
:1038900000D1521E0B884EEA822213430B8007E0B0
:1038A000B1F850201144227801EBC201A1F80604BE
:1038B000628983B26169286804F0A2F922782968D4
:1038C00031F8220000EA0A0080F0300040EA0B00E4
:1038D00021F822009EE701F0070101EB810100EBD6
:1038E000C100D0F86C0170472DE9F04104460F0685
:1038F00001F0070000EB800104EBC1014FF001066D
:103900004FF0000502D54E74103103E081F851519B
:1039100001F5A871022B0870C2F30A000861CB7090
:1039200000D10D7194F89002012809D084F89062BA
:10393000206803F0DBFC284684F89052BDE8F08153
:103940000220FBE710B501F0070404EB840100EB53
:10395000C101C1E959230022C1F86C2181F851212C
:1039600081F85041006801F5A87103F065FF00205F
:1039700010BD70B5044601F007002279904201D9CC
:10398000012070BD0B064FF000054FF0010206D577
:1039900000EB800104EBC1014A74103107E001EB38
:1039A000810104EBC10181F8515101F5A8718A70C0
:1039B000087094F89002012808D084F890222068BA
:1039C00003F020FF84F89052002070BD022070BDEB
:1039D00010B501F0070404EB840100EBC101C1E95B
:1039E0000923012281F834200B630023CB624A743F
:1039F00001F8104F006803F01FFF002010BD10B544
:103A00000446006804F0DEF8010404D52046BDE851
:103A1000104001F045BF41050ED5206830F8441F25
:103A200021F480610180204600F008F92046BDE8BD
:103A30001040002100F02EB9410405D5206830F86F
:103A4000441F21F480417DE0810405D5206830F8D1
:103A5000441F21F4005175E0C1041FD5206830F8DF
:103A6000401F21F004010180206830F8401F21F040
:103A70000801018094F8C802012806D1002084F8CA
:103A8000C80201462046FFF753FC204600F0EAF842
:103A9000206830F8441F21F4805153E0010512D50D
:103AA000206830F8401F41F008010180206830F89C
:103AB000441F21F400610180206830F8401F41F06C
:103AC000040101800AE0010629D5206830F8441F6E
:103AD00021F08001018094F8C80218B1204600F05E
:103AE00009F910BD206830F8401F41F00401018041
:103AF000206830F8401F41F008010180012084F85F
:103B0000C8022068B0F854003C2101EA9000C4F8D3
:103B1000CC022046BDE810400121FFF709BC810519
:103B200009D5206830F8441F21F400710180204637
:103B300000F0ACF810BDC005FCD5206830F8441F7B
:103B400021F48071018010BD70B5040004D094F898
:103B50009102002510B106E0012070BD84F890525A
:103B6000204600F03FF8032084F89102206803F01B
:103B700009FE002001260BE000EB800104EBC101EF
:103B80004E740874CD740D624D62401CC0B28D62DB
:103B900021798142F0D8002012E000BF00EB8001C3
:103BA00004EBC10181F8515181F8500181F8535162
:103BB000C1F86051C1F86451401CC0B2C1F86851ED
:103BC00021798142EAD894E8070003F0D2FD2573F9
:103BD00084F89162A07A012802D12046FFF796FB73
:103BE000002070BD10B592B0044644216846FCF731
:103BF000F3FB1049206888421AD14014009000203D
:103C00000D90684600F0EEF808B1FEF736F90A4864
:103C1000816D41F400018165806D002200F4000097
:103C2000119011461420FFF73FFB1420FFF72EFBE5
:103C300012B010BD005C00400010024070B5044698
:103C400040790125022801D0FEF717F92946D4F85A
:103C5000D80203F000F9D4F8D802BDE8704003F0B0
:103C6000B3B8000010B50446407A30B10648016888
:103C700021F00601016002F0EBF9D4F8D802BDE8AA
:103C8000104003F0CEB8000010ED00E0D0F8D802EC
:103C900003F0D1B810B5044690F8900201280AD07C
:103CA000012084F890022173206803F0A2FF002015
:103CB00084F8900210BD022010BDD0F8D82200F583
:103CC0002671104603F0D3B810B5044690F8900260
:103CD00001280CD0012084F89002206803F063FFD3
:103CE000206803F03FFD002084F8900210BD022000
:103CF00010BD000010B50446D0F8D80203F0F9F862
:103D0000607A002804D00348016841F00601016090
:103D100010BD000010ED00E02B492C4B0A68322149
:103D20004A432B4940B1B0F5007F086829D020F400
:103D3000C06040F480602CE00868C0F34120022895
:103D400004D051F8800F20F4807022E0D1F8800078
:103D500020F48070C1F88000086820F4C06040F44E
:103D600000700860B2FBF3F0401C00E0401E4A699E
:103D7000520501D50028F9D1486940050AD503202C
:103D80007047C0F34120022806D051F8800F40F45C
:103D90008070086000207047D1F8800040F4807087
:103DA000C1F88000086820F4C06040F4007008602A
:103DB000B2FBF3F0401C00E0401E4A695205DBD51F
:103DC0000028F9D1D8E700000C00002040420F0085
:103DD000007000400248816841F480418160704772
:103DE000007000402DE9F8430446006800269D4D10
:103DF00000035ED5A86D0027C00008D4A86D40F070
:103E00008050A865A86D012700F080500090DFF871
:103E10005892D9F8001041F48071C9F80010FFF7EA
:103E2000DDF9804606E000BFFFF7D8F9A0EB0800F7
:103E300002282BD8D9F80000C005F5D5D5F8900098
:103E400010F4407014D0216C814211D0D5F890004C
:103E5000D5F8901020F4407041F48031C5F89010EE
:103E6000D5F8901021F48031C5F89010C5F8900075
:103E7000C00711D0FFF7B2F9804641F2883907E058
:103E8000FFF7ACF9A0EB0801494501D903260BE087
:103E9000D5F890008007F3D5D5F89000216C20F478
:103EA00040700843C5F890001FB1A86D20F0805005
:103EB000A8652078C00707D0D5F88800616820F091
:103EC00003000843C5F888002078800707D5D5F897
:103ED0008800A16820F00C000843C5F8880020780D
:103EE000400707D5D5F88800E16820F03000084386
:103EF000C5F888002078000707D5D5F88800216923
:103F000020F0C0000843C5F888002078800607D557
:103F1000D5F88800616920F440600843C5F888003E
:103F20002078400607D5D5F88800A16920F44050D4
:103F30000843C5F888002078000607D5D5F8880022
:103F4000E16920F440400843C5F888002088C00596
:103F500007D5D5F88800216A20F440300843C5F819
:103F600088002088800507D5D5F88800616A20F48C
:103F700040200843C5F88800208840050FD5D5F8B3
:103F80008800A16A20F440100843C5F88800A06AA0
:103F9000B0F5801F03D1E86840F48010E860208805
:103FA00000050FD5D5F88800E16A20F440000843E9
:103FB000C5F88800E06AB0F5800F03D1E86840F4E6
:103FC0008010E8602088C0040FD5D5F88800216BE8
:103FD00020F040700843C5F88800206BB0F1807F66
:103FE00003D1E86840F48010E86020884FF0006159
:103FF00080040ED5D5F88800626B20F04060104335
:10400000C5F88800606B884203D1E86840F48010EE
:10401000E860208840040ED5D5F88800A26B20F017
:1040200040601043C5F88800A06B884203D1E8685F
:1040300040F48010E860208800040FD5D5F888008F
:10404000E16B20F040500843C5F88800E06BB0F108
:10405000805F03D1E86840F48030E8603046BDE816
:10406000F883000000100240007000402DE9F04786
:104070000E4605004FF0000725D0DFF8AC81D8F8D8
:10408000000000F00F00B0420CD2D8F8001021F070
:104090000F013143C8F80010D8F8000000F00F00FD
:1040A000B04210D12968614CC80741F2883A5AD011
:1040B0006868DFF87C91032808D0022820682DD09A
:1040C000400500282CDB0120BDE8F0872068800136
:1040D000F9D5E06800F00302E068C0F30310401C6B
:1040E000032A19D0534A00BFB2FBF0F0E268C2F3D2
:1040F00006225043E268C2F34162521C5200B0FBF8
:10410000F2F0484517D9A06810F0F00F0CD08807DE
:1041100011D5A86840B10EE0474AE5E78003D0E733
:1041200000F092F8484506D9A06820F0F00040F071
:104130008000A0608027A068696820F00300084321
:10414000A060FFF74BF8814606E000BFFFF746F896
:10415000A0EB090151453AD8A068696800F00C004D
:10416000B0EB810FF2D12868810714D5400703D541
:10417000A06840F4E060A0602878000705D5A0683A
:1041800020F4605040F4E060A060A068A96820F0CE
:10419000F000084304E0802F03D1A06820F0F00075
:1041A000A060D8F80010404601F00F01B14216D9C6
:1041B000016821F00F0131430160FFF70FF8074656
:1041C00007E000BFFFF70AF8C11B514501D90320E2
:1041D0007AE7D8F8000000F00F00B042F2D128785A
:1041E000400705D5A068E96820F4E0600843A060B6
:1041F0002878000706D5A068296920F4605040EAB5
:10420000C100A06000F020F8A1680C4AC1F30311BE
:10421000515C01F01F01C840094908600948006865
:10422000BDE8F047FEF7F8BF002002400010024052
:1042300000B4C4040024F40000127A0018830008BB
:104240000C00002000000020184910B58868C0F359
:1042500081021748012A0BD08A684310C2F38102F9
:10426000022A06D08A68C2F38102032A03D0002002
:1042700010BD184610BDCA6802F00304CA68C2F334
:104280000312521C032C02D0B0FBF2F001E0B3FB8E
:10429000F2F0CA68C968C2F306225043C1F3416113
:1042A000491C4900B0FBF1F010BD000000100240B5
:1042B0000024F4002DE9F84304007AD02078F84D6A
:1042C000C00747D0A868E96800F00C0001F00301BE
:1042D0000C2802D0082817D001E0032914D0606808
:1042E000B0F5803F17D0B0F5A02F286817D020F484
:1042F00080302860286820F4802028606068E0B161
:10430000FEF76CFF064614E02868800322D560683B
:104310000028D2D01EE0286840F48030EDE740F459
:1043200080202860F7E700BFFEF758FF801B642855
:1043300070D828688003F7D50CE0FEF74FFF0646DB
:1043400005E000BFFEF74AFF801B6428F0D828680C
:104350008003F7D4207880074CD5A868E96800F07E
:104360000C0001F003010C2802D004280DD001E05C
:1043700002290AD0E068002828682BD040F4807019
:104380002860FEF72BFF064619E02868400502D595
:10439000E068002891D06868217C20F0FE4040EA67
:1043A00001606860BF480068FEF736FF002800D152
:1043B00020E072E1FEF712FF801B0228B8D82868BF
:1043C0004005F7D56868217C20F0FE4040EA016096
:1043D00068600FE020F480702860FEF7FFFE06465C
:1043E00005E000BFFEF7FAFE801B0228A0D828686F
:1043F0004005F7D42078000729D560690028D5F852
:10440000940013D040F00100C5F89400FEF7E6FEDA
:10441000064606E090E000BFFEF7E0FE801B0228A3
:1044200086D8D5F894008007F6D510E020F001007A
:10443000C5F89400FEF7D2FE064604E0FEF7CEFE75
:10444000801B022878D8D5F894008007F6D420780D
:10445000400761D5A86D0026C00008D4A86D40F0C3
:104460008050A865A86D012600F0805000908E480D
:104470000168C90511D40168804641F4807101606A
:10448000FEF7ACFE074604E0FEF7A8FEC01B0228BC
:1044900052D8D8F80000C005F6D5A068012815D07C
:1044A0000528D5F8900016D020F00100C5F890003E
:1044B000D5F8900020F00400C5F89000A06841F203
:1044C0008838B8B1FEF78AFE07460EE0D5F89000AE
:1044D00040F00100F0E740F00400C5F89000F5E777
:1044E000FEF77CFEC11B414526D8D5F89000800719
:1044F000F6D50CE0FEF772FE074604E0FEF76EFE0E
:10450000C11B414518D8D5F890008007F6D41EB1DC
:10451000A86D20F08050A8652078800629D5A06974
:104520000028D5F8980013D040F00100C5F8980095
:10453000FEF754FE064606E075E000BFFEF74EFEAD
:10454000801B02286FD8D5F898008007F6D510E0B8
:1045500020F00100C5F89800FEF740FE064604E092
:10456000FEF73CFE801B02285DD8D5F89800800736
:10457000F6D4E069F0B3A968C1F3810103295DD0E5
:104580000228286820F08070286003D0FEF726FEFD
:1045900004464BE0FEF722FE064604E0FEF71EFE50
:1045A000801B02283FD828688001F7D4F4E908016D
:1045B0006FF00F0202EB01110843218A52044908EF
:1045C00002EB4151A26841EA02210843217D4FF0EC
:1045D0007E42490802EB41610843217B40EAC16009
:1045E000E968324A11400843E860286840F080706A
:1045F000286000E05EE0E86840F08070E860FEF768
:10460000EDFD044605E000BFFEF7E8FD001B0228B3
:1046100009D828688001F7D54CE000BFFEF7DEFD21
:10462000001B022802D90320BDE8F8832868800116
:10463000F4D4E8681E490840E8603BE00128F3D064
:10464000E868226A00F00301914226D1616A00F015
:10465000F0020901103991421FD1A26A00F4FE4113
:10466000B1EB022F19D194F82C2000F07841B1EB76
:10467000C26F12D1218E00F4C00249084905A1F58C
:104680000011914209D194F8341000F0C06049083B
:104690004906A1F1007181420CD00120C4E700005D
:1046A0000010024000000020007000400C809F01BC
:1046B000FCFFEEFE0020B7E770B5040009D0606A89
:1046C000002540B125616561A56294F85D0040B1A7
:1046D0000CE0012070BD6068B0F5827FF4D0E56128
:1046E000F2E784F85C50204600F05CF8022084F881
:1046F0005D002068016821F040010160E1684FF42D
:10470000E062914201D9002001E04FF48050B1F500
:10471000706F02D0914200D0A562A188228901F475
:10472000827102F404421143227C02F0020211431E
:10473000227D02F001021143228B02F40072114328
:10474000227F02F03802114394F8202002F0800208
:104750001143228D02F40052114322681160A169B5
:10476000042202EA114194F8242000F4805002F05F
:104770001002114394F8342002F008021143A28978
:1047800002F4706211430143206841602068C169EE
:1047900021F40061C1612566012084F85D000020DC
:1047A00070BD000070B586B0044614216846FBF762
:1047B00013FE2A4A216800242948022591421AD171
:1047C000016E41F480510166016E01F48051059142
:1047D000C16C41F00101C164C06C694600F0010088
:1047E0000590E0200090CDE901540520CDE903407B
:1047F0004FF090402DE01B4A91422CD1816D41F445
:1048000000418165816D01F400410591C16C41F069
:104810000401C164C16C01F004010591C16C41F057
:104820000201C164C06C062600F00200059010155C
:104830000090CDE90154CDE9034669460A48FEF7E8
:10484000A3FB20200090CDE90154CDE90346694641
:104850000648FEF799FB06B070BD0000003001402D
:1048600000100240003C00400008004800040048DE
:104870002DE9F84F984616468A460446FEF7AEFCE8
:10488000814694F85D00012820D1BAF1000F6FD065
:10489000002E6DD094F85C00012817D0012784F811
:1048A0005C70032084F85D0000252566C4F838A0FC
:1048B000A687E6872564A4F84450A4F846502565E9
:1048C000E564A068B0F5004F03D00CE00220BDE81D
:1048D000F88F2068016821F04001016020680168BC
:1048E00041F48041016020680168490603D40168F1
:1048F00041F040010160E068B0F5E06F606826D9E2
:1049000008B1012E1FD1A06B21680088C86006E0A5
:1049100020688168890709D5A16B0988C160A06BEF
:10492000801CA063E08F401EE0870CE0FEF756FC81
:10493000A0EB0901414503D3B8F1FF3F03D04BE0A1
:10494000B8F1000F48D0E08F0028E1D139E008B17C
:10495000012E33D1E08F0128A06B03D92168008894
:10496000C86010E021680078087314E0E08725E053
:1049700043E020688168890713D5E18F0129A16B85
:1049800007D90988C160A06B801CA063E08F801EDE
:10499000ECE709780173A06B401CA063E08F401E18
:1049A000E4E7FEF71BFCA0EB0901414503D3B8F196
:1049B000FF3F03D010E0B8F1000F0DD0E08F0028CA
:1049C000D7D14A464146204601F00CFA08B12020D2
:1049D0002066A06830B109E084F85D7084F85C500E
:1049E000032074E72068C1688068009084F85D70D7
:1049F00004F85C5F60680028F3D0012067E710B519
:104A0000401EB0F1807F01D3012010BD4FF0E024A3
:104A100060610F21601703F0EEF90020A06107200C
:104A20002061002010BD70477047704730B590F886
:104A30003C20012A42D0012280F83C20CA688B68C1
:104A400022F440721A434B6822F480621A430B68C6
:104A500022F400621A430B6922F480521A434B6914
:104A600022F400521A430B6B22F480421A430B8B40
:104A700022F4702242EA0342CB6922F080521A43A8
:104A80000F4D03680024AB4202D00E4DAB4210D153
:104A90000D8D22F4700242EA05520D6A22F08072F6
:104AA0002A434D6A22F000722A43C96A22F000525A
:104AB0000A435A6480F83C40002030BD022030BDDB
:104AC000002C0140003401407047704770470000DF
:104AD000F0B590F83C20012A3AD0012580F83C50EE
:104AE000022280F83D2003685A689C68194E1A4FCC
:104AF000B34201D0BB4204D122F4700C4A6842EAAE
:104B00000C02DFF858C002EA0C02D1F800C04CEAEF
:104B1000020CC3F804C00268B2420DD0B2F1804F5B
:104B20000AD00F4B9A4207D00E4B9A4204D0BA4299
:104B300002D00D4B9A4204D1896824F080031943B6
:104B4000916080F83D50002180F83C100846F0BD8F
:104B50000220F0BD002C0140003401408FFFFFFD1A
:104B600000040040000800400040014010B5044629
:104B7000022249B104290ED0082913D094F8470025
:104B8000012816D0012010BD94F844000128F9D165
:104B900084F844200FE094F845000128F2D184F80D
:104BA000452008E094F846000128EBD184F846201F
:104BB00001E084F847200422206801F0FEFA206812
:104BC000416C41F4004141641049206888420ED094
:104BD000B0F1804F0BD00E49884208D00D49884271
:104BE00005D00D49884202D00C49884207D181681E
:104BF0000B4A1140062906D0B1F5803F03D0016869
:104C000041F001010160002010BD0000002C0140B6
:104C10000004004000080040003401400040014012
:104C200007000100704710B5040003D094F83D0060
:104C300010B107E0012010BD002084F83C002046A0
:104C400000F022F8022084F83D00211D206801F0C8
:104C500049FA012084F8480084F83E0084F83F00B7
:104C600084F8400084F8410084F8420084F843004E
:104C700084F8440084F8450084F8460084F847002E
:104C800084F83D00002010BD08B50068B0F1804FE9
:104C900012D10A48816D41F001018165806D0022C9
:104CA00000F00100009011461C20FEF7FDFABDE85F
:104CB00008401C20FEF7EABA08BD000000100240C0
:104CC00090F83D10012901D001207047022180F8A1
:104CD0003D100168CA6842F00102CA6000681049CC
:104CE00088420ED0B0F1804F0BD00E49884208D0D8
:104CF0000D49884205D00D49884202D00C498842AE
:104D000007D181680B4A1140062906D0B1F5803FD2
:104D100003D0016841F001010160002070470000EC
:104D2000002C014000040040000800400034014015
:104D3000004001400700010070B5044690F83C00B7
:104D40000025012814D0012684F83C60022084F854
:104D50003D0022689068364B184020F47F409060F8
:104D6000086870282ED010DC10F00F0F03D021E05F
:104D70004FF0020070BD4FEA2012072A1AD2DFE876
:104D800002F0525252524A3840002A4BC21A9842FC
:104D900049D009DCB0F5805F0DD0B0F5005F1CD0C4
:104DA000B0F1101F06D13EE0102A3CD0202A3AD0A4
:104DB000502A38D0012584F83D60002084F83C005A
:104DC000284670BDCB68D1E90121206801F002FAC4
:104DD0002068816841F0770109E0CB68D1E90121C1
:104DE000206801F0F7F92068816841F48041816012
:104DF000E1E7CA684968206801F096FB5021206805
:104E000006E0CA684968206801F09FFB60212068BD
:104E100001F0EAF9CFE7CA684968206801F084FB2D
:104E200040212068F4E7226801461046F0E70000C0
:104E300088FFCEFF2000100070472DE9F0410446A6
:104E40000068C66805694FF00007A90713D5B107C8
:104E500011D5F91E01610120207720688069800743
:104E6000204602D0FFF7E8FF04E000F001F92046F9
:104E700000F0E0F92777680716D5700714D5216888
:104E80006FF004000861022020772068806910F428
:104E9000407F204602D0FFF7CFFF04E000F0E8F8A3
:104EA000204600F0C7F92777280715D5300713D516
:104EB00021686FF008000861042020772068C0692D
:104EC0008007204602D0FFF7B7FF04E000F0D0F8DB
:104ED000204600F0AFF92777E80616D5F00614D57E
:104EE00021686FF010000861082020772068C069F1
:104EF00010F4407F204602D0FFF79EFF04E000F050
:104F0000B7F8204600F096F92777E80708D0F007B1
:104F100006D021686FF001000861204600F00AFA0F
:104F2000280601D4A80408D5300606D521686FF4F8
:104F3000025008612046FFF777FDE80508D53006E6
:104F400006D521686FF4807008612046FFF76BFD7D
:104F5000680608D5700606D521686FF04000086124
:104F6000204600F021FAA80608D5B00606D521682B
:104F70006FF0200008612046FFF757FDE80208D5D2
:104F8000F00206D521686FF4801008612046FFF713
:104F90009CFDA80208D5B00206D521686FF4001068
:104FA00008612046FFF790FD680208D5700206D51B
:104FB00021686FF4800008612046FFF787FD280212
:104FC0000AD5300208D521686FF400000861204638
:104FD000BDE8F041FFF726BEBDE8F081F0B587B02F
:104FE000044614216846FBF7F7F91E4920688842F9
:104FF00036D11D48C16C41F00201C164C16C01F0A1
:1050000002010591C16C41F00101C164C06C02252F
:1050100000F0010005904FF4C04000900024CDE95D
:1050200001540626114FCDE9034669463846FDF77F
:10503000ABFFA8030090CDE901540420CDE9034063
:1050400069463846FDF7A0FF4FF4E0600090CDE9D7
:105050000154CDE9034669464FF09040FDF794FFB7
:1050600007B0F0BD002C01400010024000040048D1
:10507000704770B5044690F83C0000260D460128A4
:105080000BD0012084F83C000C2A4AD007DC82B106
:10509000042A20D0082A06D131E0022070BD102A4F
:1050A00053D0142A63D00126002084F83C003046F7
:1050B00070BD206801F0A2F82068816941F0080104
:1050C00081612068816921F0040181612068816922
:1050D0002A69114311E0206801F0DEF82068816937
:1050E00041F4006181612068816921F480618161FE
:1050F000206881692A6941EA02218161D4E7206838
:1051000001F012F92068C16941F00801C16120680D
:10511000C16921F00401C1612068C1692A69114394
:1051200011E0206801F048F92068C16941F400618C
:10513000C1612068C16921F48061C1612068C169D1
:105140002A6941EA0221C161AEE7206801F07CF9D9
:105150002068016D41F0080101652068016D21F0B2
:10516000040101652068016D2A69114311E020687E
:1051700001F0A2F92068016D41F400610165206829
:10518000016D21F4806101652068016D2A6941EAA1
:105190000221016588E710B5040003D094F83D00B2
:1051A00010B107E0012010BD002084F83C0020462B
:1051B00000F022F8022084F83D00211D206800F054
:1051C00091FF012084F8480084F83E0084F83F00F5
:1051D00084F8400084F8410084F8420084F84300D9
:1051E00084F8440084F8450084F8460084F84700B9
:1051F00084F83D00002010BD08B500680B498842C6
:1052000012D10B48016E41F400610166006E00226C
:1052100000F40060009011461920FEF745F8BDE843
:1052200008401920FEF732B808BD0000002C0140EC
:10523000001002407047000030B50446022269B1F8
:10524000042912D0082917D00C291CD0102921D0EC
:1052500094F84300012824D0012030BD94F83E008A
:105260000128F9D184F83E201DE094F83F00012880
:10527000F2D184F83F2016E094F840000128EBD1E9
:1052800084F840200FE094F841000128E4D184F82C
:10529000412008E094F842000128DDD184F8422042
:1052A00001E084F843200122206800F079FF194BC7
:1052B00020681949194A984209D0884207D090427B
:1052C00005D0174DA84202D0164DA84203D1456C17
:1052D00045F400454564206898420CD0B0F1804FF9
:1052E00009D0114B984206D0104B984203D0884207
:1052F00001D0904207D181680D4A1140062906D09D
:10530000B1F5803F03D0016841F001010160002048
:1053100030BD0000002C014000340140004001403D
:1053200000440140004801400004004000080040E3
:105330000700010070B51549884225D1154C144D60
:10534000154894ED030A00F043FED4ED030A95EDF1
:10535000000A124800F045FC10488168B1F14A4F3C
:1053600005D990ED090AB1EE400A80ED090A0A4913
:1053700090ED090A0A48D1ED010A00F032FCBDE8BF
:105380007040084802F050BC70BD00007803002057
:1053900010000020C4030020EC080020B804002006
:1053A0008C040020F80800207047FEE7D1ED080AC1
:1053B00091ED061AD1ED071A20EE800AD1ED000A10
:1053C00001EE600A91ED011A01EEC10AD1ED031A56
:1053D00061EEA00AD1ED021A41EE800AD1ED041A65
:1053E00041EE810A91ED091A60EE810AC0ED000AD2
:1053F000D1ED000A81EC020A70470000F0B50023ED
:105400000A24302537261F4611E000BFB4EB107F79
:1054100002D905EB107C01E006EB107C01F813C00B
:1054200001EB430C00015B1C8CF80170DBB2934272
:10543000ECD3F0BD00EB8100006E00F0F840704747
:105440008068C0F3C00070478068C0F3C000704738
:105450008068C0F3800070478068C0F380007047A8
:10546000C06810F4406F01D00020704701207047E1
:10547000042303EAD15310B518444369C1F304511E
:1054800007248C40A3438A401343436110BD00EBC3
:105490008100016E21F00041114301667047000058
:1054A00030B593B000240F9410943C2168461194B9
:1054B000FAF792FF2E484FF0A041042501604FF407
:1054C0004031C0E9011485610121C460C0E9044193
:1054D00004774477016280F8244080F8384009035B
:1054E000C16380F84040FDF713FA08B1FCF7C5FC32
:1054F0000FA91F480F94FDF767F808B1FCF7BDFC32
:105500001C4800900920CDE901047F200594CDE9D5
:1055100003050320089080208DF824408DF8254055
:105520000A900B908DF826408DF83040694610485F
:10553000FCF7ACFC08B1FCF7A0FC0F48009040F26F
:105540000F10019069460A48FCF7A0FC08B1FCF76F
:1055500094FC0A48009040F21520019069460448E6
:10556000FCF794FC002801D0FCF787FC13B030BD99
:105570009401002002003004040060080800900C30
:10558000114810B50F490160002141608160C16080
:105590000174417481741022426101228261C261EE
:1055A000026242628262C262C0E90C218163C1630D
:1055B000FDF7A8FB002803D0BDE81040FCF75DBC58
:1055C00010BD0000006400400002002010B586B04D
:1055D00014216846FAF700FF1A48C16C41F0200117
:1055E000C164C16C01F020010591C16C41F0010161
:1055F000C164C16C01F001010591C16C41F004016D
:10560000C164C16C01F004010591C16C41F002015B
:10561000C164C06C0C4C00F0020005900122102106
:105620002046FDF7D5FD10200090012001900020BC
:1056300002900220039069462046FDF7A5FC06B0C3
:1056400010BD00000010024000080048124810B5CC
:10565000104901604FF48271416000214FF4706283
:10566000C0E90212022202610122426152028261F9
:105670001022C0E9072107224162C0E90A12016332
:105680004163FFF719F8002803D0BDE81040FCF78C
:10569000F4BB10BD0030014064020020124810B578
:1056A000104901604FF48271416000214FF4E062C3
:1056B000C0E902120122C0E90412520282612022D2
:1056C000C0E9072107224162C0E90A120163416370
:1056D000FEF7F2FF002803D0BDE81040FCF7CDBB79
:1056E00010BD0000003C0040C802002030B597B05B
:1056F0000024149415941C2168461694FAF76CFE45
:10570000342107A8FAF768FE34483349C0E9001489
:105710002021816041F29901C0E903144461846150
:10572000FFF739FD08B1FCF7A8FB7025CDE914544B
:1057300014A92A481694FFF7CBF908B1FCF79DFB92
:105740006020CDE90004029403940494059400229F
:10575000694622480694FFF78CFC08B1FCF78DFBE4
:10576000042269461D48FFF784FC08B1FCF785FB5D
:10577000082269461948FFF77CFC08B1FCF77DFB5D
:1057800041F29000CDE900500C2269461348FFF722
:1057900070FC08B1FCF771FB07940A200894CDE96E
:1057A00009404FF480500B9040000C900220CDE94E
:1057B0000D040006CDE90F401194129407A9074883
:1057C0001394FFF733F908B1FCF757FB0348FFF7D1
:1057D00005FC17B030BD0000002C01402C03002058
:1057E00010B588B0002417480094019402940394E3
:1057F000049405944FF0804106940160A921C0E90A
:10580000011440F2E731C0E903148461FFF70BFA99
:1058100008B1FCF732FB4FF480500090694609480C
:10582000FFF78AFA08B1FCF728FB049404A905489D
:105830000694FFF74DF9002801D0FCF71EFB08B0D5
:1058400010BD00007803002010B500220F49104859
:1058500001F0A0F908B1FCF710FB0E490C4801F06B
:1058600070FB08B1FCF709FB0B49094800F0DEFFAB
:1058700008B1FCF702FB064801F0DEFB002803D06C
:10588000BDE81040FCF7F9BA10BD00001800002078
:10589000B80E00205C0100206C000020FEE7FEE74F
:1058A0002DE9F84F044640F68F7A40F2064B48F651
:1058B0000F784FF000098BE1B0F8441011F00F059C
:1058C0003AD030F8256031047DD530F8251001EA52
:1058D0000A0141F0800120F8251005EB850004EB5A
:1058E000C00797F85C0107F5A87700286CD0F87816
:1058F00002286AD03978226832F8210048F68F737E
:10590000184048F2C003184322F821003878D4F830
:1059100000C03CF820104904BCF8501001EB0C0208
:105920007ED540F2024101EBC000105A8005800D87
:10593000009076D03A89A7E0C9062AD4018801EA06
:10594000080141F400410180206804F11005B0F81D
:105950005010227C014440F2024000EBC200085A81
:10596000C0F30900E062616A0844606200212046D9
:10597000FDF71EFD207B00289DD0A86900289AD144
:10598000207B40F080012068A0F84C1084F80C9037
:105990001EE1018804F5A8750A051ED5B0F850105F
:1059A0000A1829780BEBC100105A04F52671C0F3D0
:1059B0000903EB61EA88206802F007F9216808888A
:1059C00000EA0A0002E07BE03FE04EE040F08000A9
:1059D00008802046FEF771F9FAE00904D8D501885D
:1059E00001EA0A0141F0800101802068B0F85010FE
:1059F0002A7808440BEBC201405A83059B0DEB61EA
:105A00000DD0696959B1EA88206802F0DEF8E969C9
:105A100068690844686100212046FDF7D2FC01E076
:105A20002AE028E0206801880A050DD4C1F301317D
:105A3000032909D001884BF68F72114081F440513F
:105A400048F2800211430180C2E02068B0F8501093
:105A50003B780A180BEBC301515A8905890D009157
:105A600017D0FA887969009B11E032463946204602
:105A7000FDF703FD00900CE00BEBC000105A800511
:105A8000800D009005D07A8903466046796902F05E
:105A90009CF8F96900980844F8617869009908440D
:105AA0007861B86918B139690098814204D93978A8
:105AB0002046FDF786FC03E03946206801F0BCFE75
:105AC00030062DD505EB850004EBC001206830F8C9
:105AD000252002EA080242F4004220F82520C87C72
